{
  "_format": "hh-sol-artifact-1",
  "contractName": "CampaignFactory",
  "sourceName": "contracts/Campaign.sol",
  "abi": [
    {
      "inputs": [],
      "stateMutability": "nonpayable",
      "type": "constructor"
    },
    {
      "anonymous": false,
      "inputs": [
        {
          "indexed": true,
          "internalType": "address",
          "name": "from",
          "type": "address"
        },
        {
          "indexed": false,
          "internalType": "string",
          "name": "name",
          "type": "string"
        },
        {
          "indexed": false,
          "internalType": "string",
          "name": "message",
          "type": "string"
        },
        {
          "indexed": false,
          "internalType": "uint256",
          "name": "timestamp",
          "type": "uint256"
        },
        {
          "indexed": false,
          "internalType": "uint256",
          "name": "amount",
          "type": "uint256"
        }
      ],
      "name": "Donation",
      "type": "event"
    },
    {
      "anonymous": false,
      "inputs": [
        {
          "indexed": false,
          "internalType": "string",
          "name": "title",
          "type": "string"
        },
        {
          "indexed": false,
          "internalType": "uint256",
          "name": "requiredAmount",
          "type": "uint256"
        },
        {
          "indexed": true,
          "internalType": "address",
          "name": "owner",
          "type": "address"
        },
        {
          "indexed": false,
          "internalType": "address",
          "name": "campaignAddress",
          "type": "address"
        },
        {
          "indexed": false,
          "internalType": "string",
          "name": "imgURI",
          "type": "string"
        },
        {
          "indexed": true,
          "internalType": "uint256",
          "name": "timestamp",
          "type": "uint256"
        },
        {
          "indexed": true,
          "internalType": "string",
          "name": "category",
          "type": "string"
        }
      ],
      "name": "campaignCreated",
      "type": "event"
    },
    {
      "anonymous": false,
      "inputs": [
        {
          "indexed": true,
          "internalType": "address",
          "name": "donar",
          "type": "address"
        },
        {
          "indexed": true,
          "internalType": "uint256",
          "name": "amount",
          "type": "uint256"
        },
        {
          "indexed": true,
          "internalType": "uint256",
          "name": "timestamp",
          "type": "uint256"
        }
      ],
      "name": "donated",
      "type": "event"
    },
    {
      "inputs": [],
      "name": "Rowner",
      "outputs": [
        {
          "internalType": "address payable",
          "name": "",
          "type": "address"
        }
      ],
      "stateMutability": "view",
      "type": "function"
    },
    {
      "inputs": [
        {
          "internalType": "string",
          "name": "name",
          "type": "string"
        },
        {
          "internalType": "string",
          "name": "message",
          "type": "string"
        }
      ],
      "name": "buyChai",
      "outputs": [],
      "stateMutability": "payable",
      "type": "function"
    },
    {
      "inputs": [
        {
          "internalType": "string",
          "name": "campaignTitle",
          "type": "string"
        },
        {
          "internalType": "uint256",
          "name": "requiredCampaignAmount",
          "type": "uint256"
        },
        {
          "internalType": "string",
          "name": "imgURI",
          "type": "string"
        },
        {
          "internalType": "string",
          "name": "category",
          "type": "string"
        },
        {
          "internalType": "string",
          "name": "storyURI",
          "type": "string"
        }
      ],
      "name": "createCampaign",
      "outputs": [],
      "stateMutability": "nonpayable",
      "type": "function"
    },
    {
      "inputs": [
        {
          "internalType": "uint256",
          "name": "",
          "type": "uint256"
        }
      ],
      "name": "deployedCampaigns",
      "outputs": [
        {
          "internalType": "address",
          "name": "",
          "type": "address"
        }
      ],
      "stateMutability": "view",
      "type": "function"
    },
    {
      "inputs": [],
      "name": "donate",
      "outputs": [],
      "stateMutability": "payable",
      "type": "function"
    },
    {
      "inputs": [],
      "name": "getBalance",
      "outputs": [
        {
          "internalType": "uint256",
          "name": "",
          "type": "uint256"
        }
      ],
      "stateMutability": "view",
      "type": "function"
    },
    {
      "inputs": [],
      "name": "getMemos",
      "outputs": [
        {
          "components": [
            {
              "internalType": "string",
              "name": "name",
              "type": "string"
            },
            {
              "internalType": "string",
              "name": "message",
              "type": "string"
            },
            {
              "internalType": "uint256",
              "name": "timestamp",
              "type": "uint256"
            },
            {
              "internalType": "address",
              "name": "from",
              "type": "address"
            }
          ],
          "internalType": "struct CampaignFactory.Memo[]",
          "name": "",
          "type": "tuple[]"
        }
      ],
      "stateMutability": "view",
      "type": "function"
    },
    {
      "inputs": [],
      "name": "receivedAmount",
      "outputs": [
        {
          "internalType": "uint256",
          "name": "",
          "type": "uint256"
        }
      ],
      "stateMutability": "view",
      "type": "function"
    },
    {
      "inputs": [],
      "name": "requiredAmount",
      "outputs": [
        {
          "internalType": "uint256",
          "name": "",
          "type": "uint256"
        }
      ],
      "stateMutability": "view",
      "type": "function"
    }
  ],
  "bytecode": "0x608060405234801561001057600080fd5b5033600460006101000a81548173ffffffffffffffffffffffffffffffffffffffff021916908373ffffffffffffffffffffffffffffffffffffffff160217905550612076806100616000396000f3fe608060405260043610620000925760003560e01c8063865c51721162000061578063865c5172146200015b5780639632e720146200018b578063a0d1804514620001bb578063c658857d14620001eb578063ed88c68e14620002195762000092565b806312065fe01462000097578063339d50a514620000c757806348b9ef40146200010b5780636a13d859146200013b575b600080fd5b348015620000a457600080fd5b50620000af62000225565b604051620000be9190620009d7565b60405180910390f35b348015620000d457600080fd5b50620000f36004803603810190620000ed919062000a39565b62000266565b60405162000102919062000ab0565b60405180910390f35b3480156200011857600080fd5b5062000123620002a6565b604051620001329190620009d7565b60405180910390f35b62000159600480360381019062000153919062000c2f565b620002ac565b005b3480156200016857600080fd5b5062000173620004a9565b60405162000182919062000eab565b60405180910390f35b3480156200019857600080fd5b50620001a36200069e565b604051620001b29190620009d7565b60405180910390f35b348015620001c857600080fd5b50620001d3620006a4565b604051620001e2919062000ef4565b60405180910390f35b348015620001f857600080fd5b5062000217600480360381019062000211919062000f11565b620006ca565b005b62000223620007e9565b005b6000600460009054906101000a900473ffffffffffffffffffffffffffffffffffffffff1673ffffffffffffffffffffffffffffffffffffffff1631905090565b600081815481106200027757600080fd5b906000526020600020016000915054906101000a900473ffffffffffffffffffffffffffffffffffffffff1681565b60015481565b60003411620002f2576040517f08c379a0000000000000000000000000000000000000000000000000000000008152600401620002e9906200109c565b60405180910390fd5b600460009054906101000a900473ffffffffffffffffffffffffffffffffffffffff1673ffffffffffffffffffffffffffffffffffffffff166108fc349081150290604051600060405180830381858888f193505050501580156200035b573d6000803e3d6000fd5b50600360405180608001604052808481526020018381526020014281526020013373ffffffffffffffffffffffffffffffffffffffff1681525090806001815401808255809150506001900390600052602060002090600402016000909190919091506000820151816000019080519060200190620003dc929190620008fe565b506020820151816001019080519060200190620003fb929190620008fe565b506040820151816002015560608201518160030160006101000a81548173ffffffffffffffffffffffffffffffffffffffff021916908373ffffffffffffffffffffffffffffffffffffffff16021790555050503373ffffffffffffffffffffffffffffffffffffffff167fdd10e0ac7ff4472e4e130e66c1b79a146ea2f69e23abeb3c96097d9066eaa204838342346040516200049d9493929190620010ff565b60405180910390a25050565b60606003805480602002602001604051908101604052809291908181526020016000905b82821015620006955783829060005260206000209060040201604051806080016040529081600082018054620005039062001189565b80601f0160208091040260200160405190810160405280929190818152602001828054620005319062001189565b8015620005825780601f10620005565761010080835404028352916020019162000582565b820191906000526020600020905b8154815290600101906020018083116200056457829003601f168201915b505050505081526020016001820180546200059d9062001189565b80601f0160208091040260200160405190810160405280929190818152602001828054620005cb9062001189565b80156200061c5780601f10620005f0576101008083540402835291602001916200061c565b820191906000526020600020905b815481529060010190602001808311620005fe57829003601f168201915b50505050508152602001600282015481526020016003820160009054906101000a900473ffffffffffffffffffffffffffffffffffffffff1673ffffffffffffffffffffffffffffffffffffffff1673ffffffffffffffffffffffffffffffffffffffff168152505081526020019060010190620004cd565b50505050905090565b60025481565b600460009054906101000a900473ffffffffffffffffffffffffffffffffffffffff1681565b60008585858433604051620006df906200098f565b620006ef959493929190620011bf565b604051809103906000f0801580156200070c573d6000803e3d6000fd5b5090506000819080600181540180825580915050600190039060005260206000200160009091909190916101000a81548173ffffffffffffffffffffffffffffffffffffffff021916908373ffffffffffffffffffffffffffffffffffffffff1602179055508260405162000782919062001273565b6040518091039020423373ffffffffffffffffffffffffffffffffffffffff167ff932d905365211c7f19fda44bcb55b1adbe63365f7cdae1c35ddcb3e38ed1d468989868a604051620007d994939291906200128c565b60405180910390a4505050505050565b6002546001541162000832576040517f08c379a0000000000000000000000000000000000000000000000000000000008152600401620008299062001337565b60405180910390fd5b600460009054906101000a900473ffffffffffffffffffffffffffffffffffffffff1673ffffffffffffffffffffffffffffffffffffffff166108fc349081150290604051600060405180830381858888f193505050501580156200089b573d6000803e3d6000fd5b503460026000828254620008b0919062001388565b9250508190555042343373ffffffffffffffffffffffffffffffffffffffff167fe6add99d06d9ad7fc456e746aa162eed6211c5002ef2dacdd67b8d2016822fba60405160405180910390a4565b8280546200090c9062001189565b90600052602060002090601f0160209004810192826200093057600085556200097c565b82601f106200094b57805160ff19168380011785556200097c565b828001600101855582156200097c579182015b828111156200097b5782518255916020019190600101906200095e565b5b5090506200098b91906200099d565b5090565b610c5b80620013e683390190565b5b80821115620009b85760008160009055506001016200099e565b5090565b6000819050919050565b620009d181620009bc565b82525050565b6000602082019050620009ee6000830184620009c6565b92915050565b6000604051905090565b600080fd5b600080fd5b62000a1381620009bc565b811462000a1f57600080fd5b50565b60008135905062000a338162000a08565b92915050565b60006020828403121562000a525762000a51620009fe565b5b600062000a628482850162000a22565b91505092915050565b600073ffffffffffffffffffffffffffffffffffffffff82169050919050565b600062000a988262000a6b565b9050919050565b62000aaa8162000a8b565b82525050565b600060208201905062000ac7600083018462000a9f565b92915050565b600080fd5b600080fd5b6000601f19601f8301169050919050565b7f4e487b7100000000000000000000000000000000000000000000000000000000600052604160045260246000fd5b62000b228262000ad7565b810181811067ffffffffffffffff8211171562000b445762000b4362000ae8565b5b80604052505050565b600062000b59620009f4565b905062000b67828262000b17565b919050565b600067ffffffffffffffff82111562000b8a5762000b8962000ae8565b5b62000b958262000ad7565b9050602081019050919050565b82818337600083830152505050565b600062000bc862000bc28462000b6c565b62000b4d565b90508281526020810184848401111562000be75762000be662000ad2565b5b62000bf484828562000ba2565b509392505050565b600082601f83011262000c145762000c1362000acd565b5b813562000c2684826020860162000bb1565b91505092915050565b6000806040838503121562000c495762000c48620009fe565b5b600083013567ffffffffffffffff81111562000c6a5762000c6962000a03565b5b62000c788582860162000bfc565b925050602083013567ffffffffffffffff81111562000c9c5762000c9b62000a03565b5b62000caa8582860162000bfc565b9150509250929050565b600081519050919050565b600082825260208201905092915050565b6000819050602082019050919050565b600081519050919050565b600082825260208201905092915050565b60005b8381101562000d1c57808201518184015260208101905062000cff565b8381111562000d2c576000848401525b50505050565b600062000d3f8262000ce0565b62000d4b818562000ceb565b935062000d5d81856020860162000cfc565b62000d688162000ad7565b840191505092915050565b62000d7e81620009bc565b82525050565b62000d8f8162000a8b565b82525050565b6000608083016000830151848203600086015262000db4828262000d32565b9150506020830151848203602086015262000dd0828262000d32565b915050604083015162000de7604086018262000d73565b50606083015162000dfc606086018262000d84565b508091505092915050565b600062000e15838362000d95565b905092915050565b6000602082019050919050565b600062000e378262000cb4565b62000e43818562000cbf565b93508360208202850162000e578562000cd0565b8060005b8581101562000e99578484038952815162000e77858262000e07565b945062000e848362000e1d565b925060208a0199505060018101905062000e5b565b50829750879550505050505092915050565b6000602082019050818103600083015262000ec7818462000e2a565b905092915050565b600062000edc8262000a6b565b9050919050565b62000eee8162000ecf565b82525050565b600060208201905062000f0b600083018462000ee3565b92915050565b600080600080600060a0868803121562000f305762000f2f620009fe565b5b600086013567ffffffffffffffff81111562000f515762000f5062000a03565b5b62000f5f8882890162000bfc565b955050602062000f728882890162000a22565b945050604086013567ffffffffffffffff81111562000f965762000f9562000a03565b5b62000fa48882890162000bfc565b935050606086013567ffffffffffffffff81111562000fc85762000fc762000a03565b5b62000fd68882890162000bfc565b925050608086013567ffffffffffffffff81111562000ffa5762000ff962000a03565b5b620010088882890162000bfc565b9150509295509295909350565b600082825260208201905092915050565b7f506c656173652070617920736f6d657468696e6720677265617465722074686160008201527f6e20300000000000000000000000000000000000000000000000000000000000602082015250565b60006200108460238362001015565b9150620010918262001026565b604082019050919050565b60006020820190508181036000830152620010b78162001075565b9050919050565b6000620010cb8262000ce0565b620010d7818562001015565b9350620010e981856020860162000cfc565b620010f48162000ad7565b840191505092915050565b600060808201905081810360008301526200111b8187620010be565b90508181036020830152620011318186620010be565b9050620011426040830185620009c6565b620011516060830184620009c6565b95945050505050565b7f4e487b7100000000000000000000000000000000000000000000000000000000600052602260045260246000fd5b60006002820490506001821680620011a257607f821691505b60208210811415620011b957620011b86200115a565b5b50919050565b600060a0820190508181036000830152620011db8188620010be565b9050620011ec6020830187620009c6565b8181036040830152620012008186620010be565b90508181036060830152620012168185620010be565b905062001227608083018462000a9f565b9695505050505050565b600081905092915050565b6000620012498262000ce0565b62001255818562001231565b93506200126781856020860162000cfc565b80840191505092915050565b60006200128182846200123c565b915081905092915050565b60006080820190508181036000830152620012a88187620010be565b9050620012b96020830186620009c6565b620012c8604083018562000a9f565b8181036060830152620012dc8184620010be565b905095945050505050565b7f726571756972656420616d6f756e742066756c6c66696c6c6564000000000000600082015250565b60006200131f601a8362001015565b91506200132c82620012e7565b602082019050919050565b60006020820190508181036000830152620013528162001310565b9050919050565b7f4e487b7100000000000000000000000000000000000000000000000000000000600052601160045260246000fd5b60006200139582620009bc565b9150620013a283620009bc565b9250827fffffffffffffffffffffffffffffffffffffffffffffffffffffffffffffffff03821115620013da57620013d962001359565b5b82820190509291505056fe60806040523480156200001157600080fd5b5060405162000c5b38038062000c5b8339818101604052810190620000379190620003c2565b84600090805190602001906200004f929190620000d5565b508360018190555082600290805190602001906200006f929190620000d5565b50816003908051906020019062000088929190620000d5565b5080600460006101000a81548173ffffffffffffffffffffffffffffffffffffffff021916908373ffffffffffffffffffffffffffffffffffffffff16021790555050505050506200050c565b828054620000e390620004d6565b90600052602060002090601f01602090048101928262000107576000855562000153565b82601f106200012257805160ff191683800117855562000153565b8280016001018555821562000153579182015b828111156200015257825182559160200191906001019062000135565b5b50905062000162919062000166565b5090565b5b808211156200018157600081600090555060010162000167565b5090565b6000604051905090565b600080fd5b600080fd5b600080fd5b600080fd5b6000601f19601f8301169050919050565b7f4e487b7100000000000000000000000000000000000000000000000000000000600052604160045260246000fd5b620001ee82620001a3565b810181811067ffffffffffffffff8211171562000210576200020f620001b4565b5b80604052505050565b60006200022562000185565b9050620002338282620001e3565b919050565b600067ffffffffffffffff821115620002565762000255620001b4565b5b6200026182620001a3565b9050602081019050919050565b60005b838110156200028e57808201518184015260208101905062000271565b838111156200029e576000848401525b50505050565b6000620002bb620002b58462000238565b62000219565b905082815260208101848484011115620002da57620002d96200019e565b5b620002e78482856200026e565b509392505050565b600082601f83011262000307576200030662000199565b5b815162000319848260208601620002a4565b91505092915050565b6000819050919050565b620003378162000322565b81146200034357600080fd5b50565b60008151905062000357816200032c565b92915050565b600073ffffffffffffffffffffffffffffffffffffffff82169050919050565b60006200038a826200035d565b9050919050565b6200039c816200037d565b8114620003a857600080fd5b50565b600081519050620003bc8162000391565b92915050565b600080600080600060a08688031215620003e157620003e06200018f565b5b600086015167ffffffffffffffff81111562000402576200040162000194565b5b6200041088828901620002ef565b9550506020620004238882890162000346565b945050604086015167ffffffffffffffff81111562000447576200044662000194565b5b6200045588828901620002ef565b935050606086015167ffffffffffffffff81111562000479576200047862000194565b5b6200048788828901620002ef565b92505060806200049a88828901620003ab565b9150509295509295909350565b7f4e487b7100000000000000000000000000000000000000000000000000000000600052602260045260246000fd5b60006002820490506001821680620004ef57607f821691505b60208210811415620005065762000505620004a7565b5b50919050565b61073f806200051c6000396000f3fe6080604052600436106100705760003560e01c80638da5cb5b1161004e5780638da5cb5b146100f65780639632e72014610121578063ed88c68e1461014c578063f3ccaac01461015657610070565b806346c922d11461007557806348b9ef40146100a05780634a79d50c146100cb575b600080fd5b34801561008157600080fd5b5061008a610181565b6040516100979190610505565b60405180910390f35b3480156100ac57600080fd5b506100b561020f565b6040516100c29190610540565b60405180910390f35b3480156100d757600080fd5b506100e0610215565b6040516100ed9190610505565b60405180910390f35b34801561010257600080fd5b5061010b6102a3565b604051610118919061059c565b60405180910390f35b34801561012d57600080fd5b506101366102c9565b6040516101439190610540565b60405180910390f35b6101546102cf565b005b34801561016257600080fd5b5061016b6103de565b6040516101789190610505565b60405180910390f35b6003805461018e906105e6565b80601f01602080910402602001604051908101604052809291908181526020018280546101ba906105e6565b80156102075780601f106101dc57610100808354040283529160200191610207565b820191906000526020600020905b8154815290600101906020018083116101ea57829003601f168201915b505050505081565b60015481565b60008054610222906105e6565b80601f016020809104026020016040519081016040528092919081815260200182805461024e906105e6565b801561029b5780601f106102705761010080835404028352916020019161029b565b820191906000526020600020905b81548152906001019060200180831161027e57829003601f168201915b505050505081565b600460009054906101000a900473ffffffffffffffffffffffffffffffffffffffff1681565b60055481565b60055460015411610315576040517f08c379a000000000000000000000000000000000000000000000000000000000815260040161030c90610664565b60405180910390fd5b600460009054906101000a900473ffffffffffffffffffffffffffffffffffffffff1673ffffffffffffffffffffffffffffffffffffffff166108fc349081150290604051600060405180830381858888f1935050505015801561037d573d6000803e3d6000fd5b50346005600082825461039091906106b3565b9250508190555042343373ffffffffffffffffffffffffffffffffffffffff167fe6add99d06d9ad7fc456e746aa162eed6211c5002ef2dacdd67b8d2016822fba60405160405180910390a4565b600280546103eb906105e6565b80601f0160208091040260200160405190810160405280929190818152602001828054610417906105e6565b80156104645780601f1061043957610100808354040283529160200191610464565b820191906000526020600020905b81548152906001019060200180831161044757829003601f168201915b505050505081565b600081519050919050565b600082825260208201905092915050565b60005b838110156104a657808201518184015260208101905061048b565b838111156104b5576000848401525b50505050565b6000601f19601f8301169050919050565b60006104d78261046c565b6104e18185610477565b93506104f1818560208601610488565b6104fa816104bb565b840191505092915050565b6000602082019050818103600083015261051f81846104cc565b905092915050565b6000819050919050565b61053a81610527565b82525050565b60006020820190506105556000830184610531565b92915050565b600073ffffffffffffffffffffffffffffffffffffffff82169050919050565b60006105868261055b565b9050919050565b6105968161057b565b82525050565b60006020820190506105b1600083018461058d565b92915050565b7f4e487b7100000000000000000000000000000000000000000000000000000000600052602260045260246000fd5b600060028204905060018216806105fe57607f821691505b60208210811415610612576106116105b7565b5b50919050565b7f726571756972656420616d6f756e742066756c6c66696c6c6564000000000000600082015250565b600061064e601a83610477565b915061065982610618565b602082019050919050565b6000602082019050818103600083015261067d81610641565b9050919050565b7f4e487b7100000000000000000000000000000000000000000000000000000000600052601160045260246000fd5b60006106be82610527565b91506106c983610527565b9250827fffffffffffffffffffffffffffffffffffffffffffffffffffffffffffffffff038211156106fe576106fd610684565b5b82820190509291505056fea2646970667358221220cd4817dcb9982f6af1cbc04e2ea3cefd53b00cb84cd275ffb1fb850e0cc16e1664736f6c634300080a0033a2646970667358221220dad496fb22e2ec80c9881b1699d1827fdb5d70fb5a3fa6ccd5af971ce3ad438564736f6c634300080a0033",
  "linkReferences": {},
  "deployedLinkReferences": {}
}